:100000000C9434000C9428010C943E000C943E0097
:100010000C943E000C943E000C943E000C943E0068
:100020000C943E000C943E000C943E000C943E0058
:100030000C943E000C943E000C943E000C943E0048
:100040000C943E000C943E000C943E000C943E0038
:100050000C943E000C943E000C943E000C943E0028
:100060000C943E000C943E0011241FBECFEFD8E04C
:10007000DEBFCDBF0E9407010C9448010C94000024
:10008000CF93DF93EC0119821A821B8268830E944E
:10009000C3008881880F82600E94E60089830E94E5
:1000A000F500DF91CF9108951F93CF93DF93EC017B
:1000B0001B811095898118238A81182B0E94C30007
:1000C0008881880F0E94D500812F0E94D5000E9450
:1000D000F500DF91CF911F9108954130A1F018F004
:1000E000423011F130C021E030E002C0220F331F56
:1000F0006A95E2F72095FC01338132233383328104
:100100002323228320C021E030E002C0220F331FCE
:100110006A95E2F7322F3095FC0143813423338313
:100120003281232B22830FC021E030E002C0220F56
:10013000331F6A95E2F7FC013381322B338320951C
:100140003281232322830E9454000895442361F0C6
:1001500021E030E002C0220F331F6A95E2F7FC0174
:100160003281232B22830CC021E030E002C0220F19
:10017000331F6A95E2F72095FC0132812323228305
:100180000E945400089580E18093B80084EA80932F
:10019000BC00ECEBF0E080818823ECF78FE39CE976
:1001A0000197F1F700C0000008958093BB008FE82D
:1001B00091E00197F1F700C0000084E88093BC0053
:1001C000ECEBF0E080818823ECF7089520E4829F37
:1001D000C001112484688093BC00ECEBF0E08081C6
:1001E0008823ECF78091BB00089584E98093BC00DC
:1001F000ECEBF0E0808184FFFDCF2FEF89EF90E002
:10020000215080409040E1F700C000000895CF9356
:10021000DF9300D000D0CDB7DEB76BE3CE010196FF
:100220000E94400040E061E0CE0101960E946D0016
:1002300041E061E0CE0101960E94A60052985A9AD0
:10024000E9E6F0E0808184608083E89A7894FFCFCB
:100250001F920F920FB60F9211242F938F939F939B
:10026000F8942FEF83EC99E0215080409040E1F723
:1002700000C000008FEF84B985B1809585B978946E
:100280009F918F912F910F900FBE0F901F901895F7
:04029000F894FFCF10
:00000001FF
