S0120000686F6D655F616C61726D2E73726563FD
S11300000C9435000C94F8020C945D000C943102AD
S11300100C9431020C9431020C945D000C945D003C
S11300200C945D000C945D000C945D000C945D00D8
S11300300C945D000C945D000C945D000C945D00C8
S11300400C945D000C945D000C9443010C947B01B2
S11300500C945D000C945D000C945D000C945D00A8
S11300600C945D000C945D00A10111241FBECFEF20
S1130070D8E0DEBFCDBF11E0A0E0B1E0E6E3F6E0FA
S113008002C005900D92AC32B107D9F722E0ACE280
S1130090B1E001C01D92AD30B207E1F710E0C5E355
S11300A0D0E004C02197FE010E941303C433D1079A
S11300B0C9F70E94DF020C9419030C940000FC01A0
S11300C0918D228D892F90E0805C9F4F821B910936
S11300D08F7399270895FC01918D828D981731F0C3
S11300E0828DE80FF11D858D90E008958FEF9FEFCD
S11300F00895FC01918D828D981761F0828DDF0146
S1130100A80FB11D5D968C91928D9F5F9F73928F06
S113011090E008958FEF9FEF0895FC01238D348DB7
S1130120231738F08FE390E0821B9109830F911D10
S11301300895832F90E0821B910901970895FC0193
S1130140848DDF01A80FB11DA35ABF4F8C91248D5C
S113015030E02F5F3F4F2F733078332334F4215036
S11301603109206C3F6F2F5F3F4F248FA689B789D9
S11301708C93A089B1898C91837080648C93938DC6
S1130180848D981306C00288F389E02D80818F7DC9
S113019080830895CF93DF93EC01888D8823D9F071
S11301A0EA89FB89808185FD05C0A889B9898C917C
S11301B086FD11C00FB607FCF5CF808185FFF2CF15
S11301C004C0CE010E949F00EBCFA889B9898C910D
S11301D085FFE8CFF6CFDF91CF9108950F931F935A
S11301E0CF93DF93EC0181E0888F9B8D8C8D9813E6
S11301F026C0E889F989808185FD32C020C08C8DB4
S113020018130CC00FB607FCFACFE889F98980816E
S113021085FFF5CFCE010E949F00F1CF8B8DFE01AB
S1130220E80FF11DE35AFF4F00839FB7F8941B8F2B
S1130230EA89FB898081806280839FBF1DC02B8DEA
S113024030E02F5F3F4F2F733078332334F4215045
S11302503109206C3F6F2F5F3F4F062F122FCFCFF6
S11302609FB7F894EE89FF896083E889F9898081D2
S11302708370806480839FBF81E090E0DF91CF91A1
S11302801F910F9108951F920F920FB60F92112490
S11302902F938F939F93AF93BF93EF93FF93E0912B
S11302A03C01F0913D01808182FD14C0ECE2F1E05B
S11302B0A689B7892C91818D8F5F8F73928D891751
S11302C071F0DF01E18DF0E0E45DFE4F258F59967A
S11302D08C9305C0E0914201F09143018081FF912C
S11302E0EF91BF91AF919F918F912F910F900FBE7E
S11302F00F901F9018951F920F920FB60F92112412
S11303002F933F934F935F936F937F938F939F9319
S1130310AF93BF93EF93FF938CE291E00E949F0011
S1130320FF91EF91BF91AF919F918F917F916F91C9
S11303305F914F913F912F910F900FBE0F901F909F
S11303401895ECE2F1E01382128288EE93E0A0E0CB
S1130350B0E084839583A683B78384E091E091839E
S1130360808385EC90E09587848784EC90E0978780
S1130370868780EC90E0918B808B81EC90E0938B6E
S1130380828B82EC90E0958B848B86EC90E0978B4B
S1130390868B118E128E138E148E0895CF92DF9257
S11303A0EF92FF920F931F93CF93DF934115510563
S11303B0C1F06A018C01E62EF72EC0E0D0E0D7012F
S11303C06D917D01D801ED91FC910190F081E02DBA
S11303D0C8010995892B39F02196CC16DD0679F7E9
S11303E002C0C0E0D0E0CE01DF91CF911F910F9108
S11303F0FF90EF90DF90CF9008956115710581F023
S1130400FB0101900020E9F73197AF01461B570B20
S1130410DC01ED91FC910280F381E02D09950895B2
S113042080E090E00895DC01ED91FC910280F3817D
S1130430E02D42E050E062E171E0099508950F93E8
S11304401F93CF93DF93EC010E94FD018C01CE0139
S11304500E941302800F911FDF91CF911F910F9182
S113046008951F920F920FB60F9211242F933F936A
S11304704F935F936F937F938F939F93AF93BF93A8
S1130480CF93DF93EF93FF93A0910B02B0910C02F3
S1130490109709F481C05E968C915E9781FF0DC020
S11304A01E96ED91FC911F9790811D968C911D973E
S11304B0982381E071F480E00CC01E96ED91FC91CC
S11304C01F9790811D968C911D97982381E009F0C8
S11304D080E0882309F460C05396ED91FC91549711
S11304E0908155968C915597809589238083569653
S11304F08D919C9157970197F1F758966D917C9146
S113050059971E96CD91DC911F971D965C911D976E
S113051038E040E0FB013197F1F7842F90E09595A6
S11305208795482F2881252309F04068315091F799
S11305305E968C915E9781FD40958091CA0190E012
S113054001968F739078992324F40197806C9F6FA0
S113055001962091C901281749F0E091CA01F0E001
S1130560E553FE4F40838093CA0107C05E968C9189
S11305705E9781605E968C935E975A968D919C915E
S11305805B970197F1F75396ED91FC915497908105
S113059055968C91892B8083FF91EF91DF91CF91B8
S11305A0BF91AF919F918F917F916F915F914F9187
S11305B03F912F910F900FBE0F901F90189561E2FD
S11305C071E08CE291E00E941F022FE986E891E03D
S11305D0215080409040E1F700C0000052985A9AA0
S11305E0E9E6F0E0808184608083E89A7894FFCF24
S11305F01F920F920FB60F9211248F939F93F8942A
S11306008FE493EC0197F1F700C000008FEF84B9F9
S113061085B1809585B978949F918F910F900FBE85
S11306200F901F901895EE0FFF1F0590F491E02D89
S10906300994F894FFCFC9
S113063600000000EE00CE018D00CA005F007900C4
S11306466B000D0A006E616E00696E66006F766659
S10F06560048656C6C6F2062726F00003D
S9030000FC
