S0120000686F6D655F616C61726D2E73726563FD
S11300000C9435000C9431010C9452000C94520061
S11300100C9452000C9452000C9452000C94520014
S11300200C9452000C9452000C9452000C94520004
S11300300C9452000C9452000C9452000C945200F4
S11300400C9452000C9452000C9452000C945200E4
S11300500C9452000C9452000C9452000C945200D4
S11300600C9452000C945200690111241FBECFEF6E
S1130070D8E0DEBFCDBF21E0A0E0B1E001C01D9219
S1130080A430B207E1F710E0C5E3D0E004C0219743
S1130090FE010E946F01C433D107C9F70E941B01FE
S11300A00C9475010C940000CF93DF93EC0119823A
S11300B01A821B8268830E94D7008881880F82601D
S11300C00E94FA0089830E940901DF91CF9108956B
S11300D01F93CF93DF93EC011B8110958981182323
S11300E08A81182B0E94D7008881880F0E94E9001A
S11300F0812F0E94E9000E940901DF91CF911F9195
S113010008954130A1F018F0423011F130C021E0DF
S113011030E002C0220F331F6A95E2F72095FC01FC
S113012033813223338332812323228320C021E08D
S113013030E002C0220F331F6A95E2F7322F309568
S1130140FC014381342333833281232B22830FC068
S113015021E030E002C0220F331F6A95E2F7FC0170
S11301603381322B338320953281232322830E94CF
S113017068000895442361F021E030E002C0220FBA
S1130180331F6A95E2F7FC013281232B22830CC0D2
S113019021E030E002C0220F331F6A95E2F7209578
S11301A0FC013281232322830E946800089580E1A8
S11301B08093B80084EA8093BC00ECEBF0E080818B
S11301C08823ECF78FE39CE90197F1F700C0000066
S11301D008958093BB008FE891E00197F1F700C088
S11301E0000084E88093BC00ECEBF0E0808188237D
S11301F0ECF7089520E4829FC00111248468809361
S1130200BC00ECEBF0E080818823ECF78091BB002C
S1130210089584E98093BC00ECEBF0E0808184FFD6
S1130220FDCF2FEF89EF90E0215080409040E1F71F
S113023000C00000089540E061E080E091E00E9489
S1130240810041E061E080E091E00E94BA005298B0
S11302505A9AE9E6F0E0808184608083E89A789491
S1130260FFCF1F920F920FB60F9211242F933F933B
S11302704F935F936F937F938F939F93AF93BF93AA
S1130280EF93FF93F8942FEF83EC99E02150804093
S11302909040E1F700C000008FEF84B985B18095EC
S11302A085B940E061E080E091E00E94BA00789472
S11302B0FF91EF91BF91AF919F918F917F916F913A
S11302C05F914F913F912F910F900FBE0F901F9010
S11302D018956BE380E091E00E9454000895EE0FBE
S11102E0FF1F0590F491E02D0994F894FFCFD0
S9030000FC
