:100000000C9423010C94A10A0C944B010C94160639
:100010000C9416060C9416060C944B010C944B0190
:100020000C944B010C944B010C944B010C944B0120
:100030000C944B010C944B010C944B010C944B0110
:100040000C944B010C944B010C94F9020C94310369
:100050000C944B010C944B010C944B010C944B01F0
:100060000C94DC070C944B01E808EC08EC08EC0855
:10007000EC08EC08EC08EC08FC07EC08EC08EC08D1
:10008000EC08EC08EC08EC08FC07EC08EC08EC08C1
:10009000EC08EC08EC08EC080408EC08EC08EC08A8
:1000A000EC08EC08EC08EC082A08EC08EC08EC0872
:1000B000EC08EC08EC08EC080408EC08EC08EC0888
:1000C000EC08EC08EC08EC083008EC08EC08EC084C
:1000D000EC08EC08EC08EC083608EC08EC08EC0836
:1000E000EC08EC08EC08EC084808EC08EC08EC0814
:1000F000EC08EC08EC08EC087208EC08EC08EC08DA
:10010000EC08EC08EC08EC083C08EC08EC08EC08FF
:10011000EC08EC08EC08EC085608EC08EC08EC08D5
:10012000EC08EC08EC08EC087508EC08EC08EC08A6
:10013000EC08EC08EC08EC087508EC08EC08EC0896
:10014000EC08EC08EC08EC087508EC08EC08EC0886
:10015000EC08EC08EC08EC087508EC08EC08EC0876
:10016000EC08EC08EC08EC087E08EC08EC08EC085D
:10017000EC08EC08EC08EC08AF08EC08EC08EC081C
:10018000EC08EC08EC08EC087E08EC08EC08EC083D
:10019000EC08EC08EC08EC08AF08EC08EC08EC08FC
:1001A000EC08EC08EC08EC089608EC08EC08EC0805
:1001B000EC08EC08EC08EC08B308EC08EC08EC08D8
:1001C000EC08EC08EC08EC08B308EC08EC08EC08C8
:1001D000EC08EC08EC08EC08C808EC08EC08EC08A3
:1001E000EC08EC08EC08EC08E208EC08EC08EC0879
:1001F000EC08EC08EC08EC08E2080000000800023B
:1002000001000003040700000000000000000102DC
:100210000408102040800102040810200102040894
:100220001020040404040404040402020202020272
:1002300003030303030300000000250028002B0034
:100240005703760AE70A11241FBECFEFD8E0DEBFBE
:10025000CDBF11E0A0E0B1E0E6E5F6E102C0059017
:100260000D92A83EB107D9F723E0A8EEB1E001C096
:100270001D92A33FB207E1F711E0C3E2D1E004C051
:100280002197FE010E94160BC032D107C9F70E94C8
:100290007B0A0C94290B0C940000833069F028F43D
:1002A0008130B1F08230C1F008958730C9F08830D4
:1002B000E9F0843001F506C0E0E8F0E080818F7756
:1002C00080830895E0E8F0E080818F7D8083089549
:1002D00084B58F7784BD089584B58F7D84BD0895DE
:1002E000E0EBF0E080818F7780830895E0EBF0E031
:1002F00080818F7D808308951F93CF93DF93282F74
:1003000030E0F901E650FE4F8491F901E25FFD4FC4
:100310001491F901EE5DFD4FC491CC23D1F0D62F9D
:1003200081110E944D01EC2FF0E0EE0FFF1FEA5CFF
:10033000FD4FA591B4918FB7F894D11106C09C914F
:10034000E12FE095E923EC9303C0EC91E12BEC93D2
:100350008FBFDF91CF911F910895FC01918D228D68
:10036000892F90E0805C9F4F821B91098F739927A2
:100370000895FC01918D828D981731F0828DE80FE0
:10038000F11D858D90E008958FEF9FEF0895FC019A
:10039000918D828D981761F0828DDF01A80FB11DBC
:1003A0005D968C91928D9F5F9F73928F90E00895E0
:1003B0008FEF9FEF0895FC01238D348D231738F0C4
:1003C0008FE390E0821B9109830F911D0895832F85
:1003D00090E0821B910901970895FC01848DDF0153
:1003E000A80FB11DA35ABF4F8C91248D30E02F5F11
:1003F0003F4F2F733078332334F421503109206C70
:100400003F6F2F5F3F4F248FA689B7898C93A089B8
:10041000B1898C91837080648C93938D848D9813B3
:1004200006C00288F389E02D80818F7D8083089546
:10043000CF93DF93EC01888D8823D9F0EA89FB897B
:10044000808185FD05C0A889B9898C9186FD11C080
:100450000FB607FCF5CF808185FFF2CF04C0CE0137
:100460000E94ED01EBCFA889B9898C9185FFE8CF77
:10047000F6CFDF91CF9108950F931F93CF93DF9322
:10048000EC0181E0888F9B8D8C8D981326C0E889C4
:10049000F989808185FD32C020C08C8D18130CC075
:1004A0000FB607FCFACFE889F989808185FFF5CF7F
:1004B000CE010E94ED01F1CF8B8DFE01E80FF11D01
:1004C000E35AFF4F00839FB7F8941B8FEA89FB899B
:1004D0008081806280839FBF1DC02B8D30E02F5FA5
:1004E0003F4F2F733078332334F421503109206C7F
:1004F0003F6F2F5F3F4F062F122FCFCF9FB7F8943C
:10050000EE89FF896083E889F9898081837080643E
:1005100080839FBF81E090E0DF91CF911F910F9189
:100520000895CF92DF92EF92FF921F93CF93DF93C4
:10053000EC016A017B01122FE889F98982E080834E
:100540004115514E61057105B1F060E079E08DE330
:1005500090E0A70196010E94F40ADA01C90101970F
:10056000A109B109B695A795979587959C01211585
:1005700080E13807A8F0E889F989108260E874E81A
:100580008EE190E0A70196010E94F40ADA01C90108
:100590000197A109B109B695A795979587959C01F3
:1005A000EC85FD853083EE85FF852083188EEC89F0
:1005B000FD891083EA89FB89808180618083EA89D3
:1005C000FB89808188608083EA89FB8980818068DB
:1005D0008083EA89FB8980818F7D8083DF91CF9141
:1005E0001F91FF90EF90DF90CF90089580E090E012
:1005F00008951F920F920FB60F9211242F938F938D
:100600009F93AF93BF93EF93FF93E091F801F09125
:10061000F901808182FD14C0E8EEF1E0A689B78976
:100620002C91818D8F5F8F73928D891771F0DF010F
:10063000E18DF0E0E851FE4F258F59968C9305C06F
:10064000E091FE01F091FF018081FF91EF91BF9158
:10065000AF919F918F912F910F900FBE0F901F9090
:1006600018951F920F920FB60F9211242F933F935C
:100670004F935F936F937F938F939F93AF93BF93AA
:10068000EF93FF9388EE91E00E94ED01FF91EF91CF
:10069000BF91AF919F918F917F916F915F914F919A
:1006A0003F912F910F900FBE0F901F901895E8EE7D
:1006B000F1E01382128288EE93E0A0E0B0E0848340
:1006C0009583A683B7838AE091E09183808385EC4C
:1006D00090E09587848784EC90E09787868780EC0C
:1006E00090E0918B808B81EC90E0938B828B82ECFD
:1006F00090E0958B848B86EC90E0978B868B118EA7
:10070000128E138E148E0895815A9F4FFC017183AF
:1007100060830895CF93DF93EC01C15ADF4F888146
:100720009981DC01ED91FC910190F081E02D09951A
:1007300088819981DC01ED91FC910280F381E02DAB
:100740000995DF91CF910895EF92FF920F93CF9388
:10075000DF93EC0182E08F8FFE01E15AFF4F808131
:1007600091817E012FE1E20EF11CDC01ED91FC9103
:100770000480F581E02D00E020E030E041E0B701A9
:10078000099581112CC0FE01E15AFF4F80819181B2
:10079000DC01ED91FC910680F781E02D28EE33E03D
:1007A00040E4B70109959923F4F06F8D862F90E00E
:1007B000A0E0B0E0BA2FA92F982F882728A1822B7C
:1007C000BA2FA92F982F882729A1822BBA2FA92FBA
:1007D000982F88272AA1BC01CD01622B07C060E0B9
:1007E00070E0CB0103C060E070E0CB01DF91CF91FE
:1007F0000F91FF90EF900895FC01828193810E94F8
:10080000D20908952FEF89E698E121508040904069
:10081000E1F700C000000895FC018BEA91E09183AC
:1008200080837383628314820895DF92EF92FF9234
:100830000F931F93CF93DF937C018901C0E0D0E039
:10084000D12C46E050E064E270E0F70182819381B0
:100850000E946E0A882311F0D11010C08FE99FE02A
:100860000197F1F700C0000021960115110549F329
:100870000C171D0730F78FEF9FEF02C08DEF9FEF32
:10088000DF91CF911F910F91FF90EF90DF9008952E
:10089000BF92CF92DF92EF92FF920F931F93CF936D
:1008A000DF936C0189010E941504C0E0D0E07C0157
:1008B000FF2488E0E80EF11CB12CA70164E270E08F
:1008C000F601828193810E946E0A882311F0B11093
:1008D00010C08FE99FE00197F1F700C0000021965A
:1008E0000115110551F30C171D0738F78FEF9FEF16
:1008F00002C08DEF9FEFDF91CF911F910F91FF907D
:10090000EF90DF90CF90BF900895DF92EF92FF922B
:100910000F931F93CF93DF93CDB7DEB72C970FB60E
:10092000F894DEBF0FBECDBF7C0186E0E0E0F1E0D1
:10093000DE01119601900D928A95E1F70BE010E02F
:10094000D12C47E050E064E270E0F70182819381AE
:100950000E946E0A882311F0D11011C08FE99FE028
:100960000197F1F700C000000150110951F764E34D
:1009700071E088EE91E00E9452058EEF1BC080E08E
:100980008F83888789878A878B878C8746E050E0AA
:10099000BE016F5F7F4FCE0107960E941C0B892B13
:1009A00041F063E571E088EE91E00E9452058FEF1F
:1009B00001C080E02C960FB6F894DEBF0FBECDBF0D
:1009C000DF91CF911F910F91FF90EF90DF900895ED
:1009D0000F931F93CF93DF93EC01142FFB018081C2
:1009E0008C8364E270E08A819B810E94EF0960E65B
:1009F00071E088EE91E00E945205111103C00111CF
:100A000009C010C068E671E088EE91E00E945205CE
:100A10008DEF14C068E671E088EE91E00E94520507
:100A20008DEF0CC08A819B810E94720A6AE088EE79
:100A300091E00E946805CE010E948504DF91CF916C
:100A40001F910F910895CF92DF92EF92FF920F9333
:100A50001F93CF93DF9341155105C1F06A018C01BB
:100A6000E62EF72EC0E0D0E0D7016D917D01D801D0
:100A7000ED91FC910190F081E02DC8010995892B41
:100A800039F02196CC16DD0679F702C0C0E0D0E03F
:100A9000CE01DF91CF911F910F91FF90EF90DF90EA
:100AA000CF9008956115710581F0FB010190002040
:100AB000E9F73197AF01461B570BDC01ED91FC9133
:100AC0000280F381E02D0995089580E090E008957B
:100AD000DC01ED91FC910190F081E02D09950895E4
:100AE000DC01ED91FC910280F381E02D42E050E0C9
:100AF00063EB71E0099508950F931F93CF93DF93F4
:100B0000EC010E9452058C01CE010E947005800FFD
:100B1000911FDF91CF911F910F9108958F929F9216
:100B2000AF92BF92EF92FF920F931F93CF93DF93F9
:100B3000CDB7DEB7A1970FB6F894DEBF0FBECDBF1D
:100B40007C01CB01BA0119A2223008F42AE08E01FF
:100B50000F5D1F4F822E912CA12CB12CA501940169
:100B60000E94F40AE62F622F732F842F952F0150D5
:100B70001109EA3010F4E05D01C0E95CD801EC93A2
:100B8000611571058105910549F70115110591F070
:100B9000F80101900020E9F73197AF01401B510B9C
:100BA000D701ED91FC910280F381E02DB801C701DE
:100BB000099502C080E090E0A1960FB6F894DEBFE0
:100BC0000FBECDBFDF91CF911F910F91FF90EF909E
:100BD000BF90AF909F908F9008952115310549F4F3
:100BE000DC01ED91FC910190F081E02D642F0995DD
:100BF00008950E948E0508959A01462F50E060E006
:100C000070E00E94ED0508950F931F93CF93DF933B
:100C1000EC010E94FC058C01CE010E947005800F42
:100C2000911FDF91CF911F910F9108951F920F9205
:100C30000FB60F9211242F933F934F935F936F93AF
:100C40007F938F939F93AF93BF93CF93DF93EF9354
:100C5000FF93A091C702B091C802109709F481C018
:100C60005E968C915E9781FF0DC01E96ED91FC9172
:100C70001F9790811D968C911D97982381E071F4A8
:100C800080E00CC01E96ED91FC911F9790811D96FF
:100C90008C911D97982381E009F080E0882309F466
:100CA00060C05396ED91FC915497908155968C912C
:100CB000559780958923808356968D919C9157975F
:100CC0000197F1F758966D917C9159971E96CD91A9
:100CD000DC911F971D965C911D9738E040E0FB0169
:100CE0003197F1F7842F90E095958795482F2881CB
:100CF000252309F04068315091F75E968C915E97FC
:100D000081FD40958091860290E001968F739078E6
:100D1000992324F40197806C9F6F0196209185029E
:100D2000281749F0E0918602F0E0E957FD4F408333
:100D30008093860207C05E968C915E9781605E9676
:100D40008C935E975A968D919C915B970197F1F7E2
:100D50005396ED91FC915497908155968C91892BE7
:100D60008083FF91EF91DF91CF91BF91AF919F91E0
:100D70008F917F916F915F914F913F912F910F9044
:100D80000FBE0F901F9018951092360381E080934C
:100D900034031092330361E082E10E947C0161E040
:100DA00083E10E947C01E9EBF0E080818E7F80830B
:100DB00080818D7F808388EF8093B80085E4809365
:100DC000BC000895413208F04CC090913603911157
:100DD000FCCF31E030933603209334032FEF209380
:100DE000C90210920E03240F20930D033093350394
:100DF00020913503880F822B809335038091330334
:100E0000813081F410923303ABEBB0E0ECEBF0E017
:100E1000809135038C93808183FDFACF85EC80939C
:100E2000BC0003C085EE8093BC0080913603813006
:100E3000E1F380910E03841710F440910E034423D4
:100E400089F0EFE0F3E0A62FB72F2FEF240F30E06B
:100E5000205F3C4F81918D93E217F307D9F7942FD0
:100E600001C090E0892F08950F93413208F057C0D8
:100E7000309136033111FCCF92E09093360300930A
:100E800034039FEF9093C90210920E0340930D0319
:100E9000442371F0FB01AFE0B3E0415050E04F5FFD
:100EA0005F4F640F751F91919D93E617F707D9F770
:100EB0001092350390913503880F892B8093350369
:100EC00080913303813081F410923303ABEBB0E0B7
:100ED000ECEBF0E0809135038C93808183FDFACFB9
:100EE00085EC8093BC0003C085EE8093BC00222378
:100EF00041F080913603823021F4809136038230B4
:100F0000E1F38091C9028F3F79F08091C90280326C
:100F100041F08091C902803331F034E005C031E006
:100F200003C032E001C033E0832F0F910895409158
:100F3000EB02262F30E0240F311D21323105ECF475
:100F4000209136032430D9F4662381F0A82FB92FDD
:100F500080E090E03091EB022D91FC01E351FD4FD8
:100F6000E30FF11D208301968617A0F38091EB0219
:100F7000680F6093EB0280E0089581E0089582E0BD
:100F800008959093300380932F0308959093320334
:100F900080933103089585ED8093BC00ECEBF0E085
:100FA000808184FDFDCF10923603089585EC8093F7
:100FB000BC001092360308951F920F920FB60F9245
:100FC00011242F933F934F935F936F937F938F934E
:100FD0009F93AF93BF93EF93FF938091B900E82F56
:100FE000E87F8E2F90E0893C910508F0F5C0FC0168
:100FF000EC5CFF4F0C94160B809135038093BB0083
:1010000085EC8093BC00E8C090910E0380910D03A5
:10101000981780F4E0910E0381E08E0F80930E0309
:10102000F0E0E15FFC4F80818093BB0085EC809312
:10103000BC00D2C080913403882319F00E94CB07F2
:10104000CBC081E08093330384EA8093BC0010928C
:101050003603C2C080E28093C9020E94CB07BCC0A5
:1010600080E38093C9020E94CB07B6C088E38093D7
:10107000C9020E94D607B0C0E0910E0381E08E0F36
:1010800080930E038091BB00F0E0E15FFC4F808312
:1010900090910E0380910D03981720F485EC8093B6
:1010A000BC009AC085E88093BC0096C0E0910E0316
:1010B00081E08E0F80930E038091BB00F0E0E15F32
:1010C000FC4F808380913403882319F00E94CB0762
:1010D00083C081E08093330384EA8093BC00109244
:1010E00036037AC00E94CB0777C083E08093360333
:1010F0001092CA0285EC8093BC006EC08091CA0237
:10110000803280F4E091CA0281E08E0F8093CA029F
:101110008091BB00F0E0E553FD4F808385EC809328
:10112000BC005AC085E88093BC0056C00E94D60718
:101130008091CA02803230F4E091CA02F0E0E553B7
:10114000FD4F10826091CA0270E0E0912F03F09190
:1011500030038BEC92E009951092CA023DC085E8FD
:101160008093BC0039C084E0809336031092EC0277
:101170001092EB02E0913103F091320309958091D6
:10118000EB02811105C081E08093EB021092ED0229
:10119000E091EC0281E08E0F8093EC02F0E0E351ED
:1011A000FD4F80818093BB009091EC028091EB0217
:1011B000981720F485EC8093BC000EC085E88093DE
:1011C000BC000AC085EC8093BC001092360304C0BA
:1011D0001092C9020E94CB07FF91EF91BF91AF918E
:1011E0009F918F917F916F915F914F913F912F913F
:1011F0000F900FBE0F901F90189580916B0390E099
:1012000020916C03821B9109089590916C03809149
:101210006B03981750F4E92FF0E0E359FC4F20815D
:1012200030E09F5F90936C0302C02FEF3FEFC90146
:101230000895E0916C0380916B03E81730F4F0E0BF
:10124000E359FC4F808190E008958FEF9FEF089560
:101250000895CF93DF93EC01E0914303F0914403B1
:10126000309701F190916C0380916B039817D0F047
:10127000161617068CF420E030E090E0DE01A90F8E
:10128000B11D4C91D901A359BC4F4C939F5F292F9D
:1012900030E02617370794F3CB0110926C0360936C
:1012A0006B030995DF91CF910895E0914503F0918B
:1012B0004603309729F0109249031092480309958C
:1012C0000895CF92DF92EF92FF920F931F93CF93E7
:1012D000DF938C01CB016A01209147032223A1F007
:1012E00041155105A1F0EB017B01E40EF51E69915A
:1012F000D801ED91FC910190F081E02DC801099594
:10130000CE15DF05A1F703C0642F0E949707C60121
:10131000DF91CF911F910F91FF90EF90DF90CF90D1
:101320000895CF93DF931F92CDB7DEB7FC01698399
:10133000909147039923D9F090914803903238F067
:1013400081E090E09383828380E090E017C08091F9
:101350004903E82FF0E0E65BFC4F998190838F5FB3
:10136000809349038093480381E090E007C061E0E7
:10137000CE0101960E94970781E090E00F90DF91E7
:10138000CF910895FC011382128288EE93E0A0E0D1
:10139000B0E084839583A683B78386EC91E0918344
:1013A0008083089510926C0310926B03109249038E
:1013B000109248030E94C40685E599E00E94C60782
:1013C00089E299E00E94C107089581E08093470374
:1013D00060936A03109249031092480308950E9493
:1013E000E50908950F93062F21E0409148036AE430
:1013F00073E080916A030E943407109249031092AF
:101400004803109247030F9108954F925F926F9295
:101410007F92AF92BF92CF92EF92FF920F931F9362
:10142000CF93DF935C01F62ED42F28013901EE20F3
:1014300049F10E94E5098E2D843008F083E0CFEF5A
:10144000C80F8823D9F08C2F880F880F880FA3012D
:10145000920104C056954795379527958A95D2F7FE
:10146000CA01B901D501ED91FC910190F081E02D07
:10147000C50109958C2FC1508111E5CF60E0C501F0
:101480000E94F2094D2FD13208F040E22C2D6DE67A
:1014900073E08F2D0E94E20610926C0380936B0321
:1014A000DF91CF911F910F91FF90EF90CF90BF9060
:1014B000AF907F906F905F904F900895CF92EF9292
:1014C0000F931F93C22EE12C00E010E098010E94C0
:1014D000050A1F910F91EF90CF90089521E00E948F
:1014E0005E0A089561E00E94F209089587E393E09F
:1014F0000E94C209089526E040E052EC61E070E0ED
:1015000088EE91E00E94910264ED71E088EE91E036
:101510000E947C052FEF89E698E1215080409040A1
:10152000E1F700C000008DE893E00E948A03529822
:101530005A9AE9E6F0E0808184608083E89A7894A2
:10154000FFCF1F920F920FB60F9211242F933F934C
:101550004F935F936F937F938F939F93AF93BF93BB
:10156000CF93EF93FF93F8942FEF87EA91E6215002
:1015700080409040E1F700C000008FEF84B985B152
:10158000809585B98DE893E00E94A403C62F6DED88
:1015900071E088EE91E00E947C054AE050E06C2FFB
:1015A00088EE91E00E9404067894FF91EF91CF912C
:1015B000BF91AF919F918F917F916F915F914F916B
:1015C0003F912F910F900FBE0F901F90189567E3DA
:1015D00073E08EEE93E00E940C046EEE73E08DE8F3
:1015E00093E00E9484030895A1E21A2EAA1BBB1B5C
:1015F000FD010DC0AA1FBB1FEE1FFF1FA217B307DF
:10160000E407F50720F0A21BB30BE40BF50B661FF4
:10161000771F881F991F1A9469F7609570958095B8
:1016200090959B01AC01BD01CF010895EE0FFF1F06
:101630000590F491E02D0994FB01DC0104C08D912B
:101640000190801921F441505040C8F7881B990B34
:061650000895F894FFCF9D
:101656000000FF00FF00000000003C022305DB0144
:101666001802AD01C701B901726561643A20200014
:10167600636865636B73756D206973206E6F742084
:101686006F6B0A0054696D65206F75742077686505
:101696006E2077616974696E6720666F72204143B8
:1016A6004B0A00496E76616C69642041434B0A001F
:1016B60077726974653A20000A546F6F206D616E07
:1016C60079206461746120746F2073656E642C20C8
:1016D60049324320646F65736E277420737570708A
:1016E6006F72742073756368206120626967207069
:1016F60061636B65740A0000000000FC030204E8E5
:101706000448040D0A006E616E00696E66006F760D
:1017160066000000000091096109F6022809FD082B
:101726000509190953746172746564210048656C72
:081736006C6F2062726F00006D
:00000001FF
