:100000000C9465000C94AC000C94E6000C944B022C
:100010000C944B020C944B020C948D000C948E06A5
:100020000C948D000C948D000C948D000C948D001C
:100030000C948D000C948D000C948D000C948D000C
:100040000C948E0C0C948D000C94090C0C943B0CAD
:100050000C948D000C948D000C948D000C948D00EC
:100060000C948D000C948D00020000000800020129
:10007000000003040700000000000000000102046B
:10008000081020408001020408102001020408101A
:100090002004040404040404040202020202020311
:1000A00003030303030000000023002600290000CF
:1000B000000000250028002B00000000002400277D
:1000C000002A00000101610C0D0111241FBECFEFB9
:1000D000D8E0DEBFCDBF11E0A0E0B1E0E8E7FCE191
:1000E00002C005900D92A235B107D9F722E0A2E532
:1000F000B1E001C01D92A338B207E1F710E0C4E6F9
:10010000D0E004C02197FE010E94FB0DC236D1074A
:10011000C9F70E948F000C942F0E0C94000040E849
:1001200055E260E070E082E691E00E94490384B10C
:10013000816284B98BE08093690083E08DBB8BB1D1
:100140008C608BB9789420E030E0A90168EB7BE00B
:1001500088E00E94D703F7CF1F920F920FB60F923D
:1001600011242F933F934F935F936F937F938F93BC
:100170009F93AF93BF93EF93FF93F8942FEF8FE488
:1001800093EC215080409040E1F700C000004A9B72
:100190000AC095B180E2892785B961E071E082E605
:1001A00091E00E945801E09A7894FF91EF91BF91FD
:1001B000AF919F918F917F916F915F914F913F91FF
:1001C0002F910F900FBE0F901F9018951F920F92B6
:1001D0000FB60F9211242F938F939F93F8942FEFC4
:1001E00089E698E1215080409040E1F700C000008E
:1001F00078949F918F912F910F900FBE0F901F9029
:10020000189520E045E064E082E691E00E941E033C
:1002100082E591E00E941508089582E691E00E942F
:10022000C502089580E090E00895CF92DF92EF92AA
:10023000FF920F931F93CF93DF936C017A018B0191
:10024000C0E0D0E0CE15DF0581F0D8016D918D01C1
:10025000D601ED91FC910190F081E02DC601099548
:10026000892B11F02196EECF7E01C701DF91CF914E
:100270001F910F91FF90EF90DF90CF90089561153F
:10028000710579F0FB0101900020E9F73197AF018A
:10029000461B570BDC01ED91FC910280F381E02DB0
:1002A000099480E090E0089564E171E00C943F01CE
:1002B0000F931F93CF93DF93EC010E943F018C01BA
:1002C000CE010E945401800F911FDF91CF911F91A9
:1002D0000F9108952091C3013091C4012817390767
:1002E000B9F49091810180918201981789F0E09191
:1002F0008101F0E0ED57FE4F80812091810130E0D7
:100300002F5F3F4F2F7333272093810190E0089593
:100310008FEF9FEF08951F93CF93DF93DC015C96DF
:100320008D919C915D97009739F421E030E0139610
:100330003C932E9312973BC05196ED91FC915297AE
:1003400050962C915097322F30951FB75E964C9156
:100350005E97742F727041FD6095F8944081772309
:1003600011F0422B01C043234083EC012197F1F7A8
:1003700048E0508160FF02C0522B01C053235083DC
:10038000EC012197F1F76695415099F78081772329
:1003900019F08323808302C0282B20831FBF5C9623
:1003A0008D919C915D970197F1F781E090E0DF914D
:1003B000CF911F91089508952091C3013091C401F8
:1003C0002817390771F49091810180918201981763
:1003D00041F0E0918101F0E0ED57FE4F808190E027
:1003E00008958FEF9FEF08952091C3013091C401CC
:1003F0002817390771F4809182012091810190E0E2
:10040000805C9F4F821B910960E470E00E94A60D02
:10041000089580E090E00895E091C301F091C40157
:10042000E817F90769F4A389B4899C9185898095B7
:1004300089238C931092C4011092C30181E0089526
:1004400080E00895CF93DF93EC018A8D9B8D892BFB
:10045000F1F08091C3019091C401C817D907B9F098
:10046000009711F00E940C028E8D8E7F8E8F10925D
:10047000820110928101D093C401C093C301EB8922
:10048000FC8990818D89892B808381E001C080E087
:10049000DF91CF9108951F920F920FB60F92112402
:1004A0002F933F934F935F936F937F938F939F937C
:1004B000AF93BF93EF93FF93E091C301F091C40119
:1004C000309709F451C0968DA685B785858591FF33
:1004D00004C09C91892329F447C09C91892309F089
:1004E00043C0A389B4899C918589809589238C9385
:1004F000868997890197F1F7608D718DA685B785FB
:10050000558538E020E0CB010197F1F7822F90E08C
:1005100095958795282F4C91452309F020683150F7
:1005200091F7868D81FD20958091820190E0019662
:100530008F73992730918101381749F0A09182017A
:10054000B0E0AD57BE4F2C938093820103C0868DDF
:100550008160868F828D938D0197F1F7A389B4898D
:100560009C918589892B8C93FF91EF91BF91AF91DD
:100570009F918F917F916F915F914F913F912F91BB
:100580000F900FBE0F901F90189527E231E0FC01ED
:10059000318320830C940C021F93CF93DF93EC01E3
:1005A000162F6E8D6695617081E06827812F0E94FD
:1005B0004F0761E0812F0E941307812F90E0FC011B
:1005C000E358FF4FE491E88BFC01EF56FF4FE491B5
:1005D000F0E0EE0FFF1FE155FF4F859194919A8B4C
:1005E000898BDF91CF911F9108951F93CF93DF9354
:1005F000EC01162F60E0812F0E9413078E8D81FD84
:1006000004C061E0812F0E944F071C87812F90E07A
:10061000FC01E358FF4FE491ED87FC01EF56FF4FDB
:10062000E491F0E0EE0FFF1FEB55FF4F85919491A1
:100630009F878E87DF91CF911F9108951F93CF934E
:10064000DF93EC01162F1B821A8288EE93E0A0E064
:10065000B0E08C839D83AE83BF8387E291E0998372
:1006600088831F8A1E8A198E188E1B8E1A8E1D8EE5
:100670001C8E8E8D8E7F20FB81F98E8F642FCE0194
:100680000E94CC02612FCE01DF91CF911F910C947B
:10069000F502CF93DF93EC019A01AB011B8E1A8E0A
:1006A000198E188E1F8A1E8A60E079E08DE390E033
:1006B0000E94DC0DF9012430310518F0C9010397BF
:1006C00002C081E090E09D8F8C8F6C85663108F0D0
:1006D00069C0C901969587958431910510F04397BB
:1006E00002C081E090E09F8B8E8B369718F0C90195
:1006F000059702C081E090E0998F888FC901880F2B
:10070000991F280F391F36952795369527952D3037
:10071000310518F02C50310902C021E030E03B8F48
:100720002A8F90916800683050F021E06E3008F414
:1007300020E081E001C0880F2A95EAF701C084E03B
:10074000892B809368009C85983038F09E3040F06B
:10075000963148F020E030E008C02DE630E005C0DA
:100760002BE630E002C02CE630E03C8B2B8B98303F
:1007700030F481E001C0880F9A95EAF70EC0292F66
:1007800030E09E3018F42850310902C02E50310953
:1007900081E001C0880F2A95EAF78D8B8C8D9D8DA5
:1007A0000197F1F7CE01DF91CF910C9422024F9285
:1007B0005F926F927F928F929F92AF92BF92CF92F1
:1007C000DF92EF92FF920F931F93CF93DF9300D0AE
:1007D00000D01F92CDB7DEB78B0129013A0190916D
:1007E0000001891721F09F3F09F04DC205C0E8E6DE
:1007F000F0E024912D8384C080930001E8E6F0E0CE
:1008000094919D839F3F09F43EC2913009F44DC0FD
:1008100058F1923009F074C01092B0001092B100FB
:100820009091B00092609093B0009091B10091606F
:100830009093B100282F30E0F901EF56FF4FE4917B
:10084000F0E0EE0FFF1FE155FF4F4591549150939B
:10085000C7014093C601F901E358FF4FE491E093CB
:10086000C50192E09D830BC214BC15BC94B5926087
:1008700094BD95B5916095BD282F30E0F901EF56F4
:10088000FF4FE491F0E0EE0FFF1FE155FF4F459160
:1008900054915093D5014093D401F901E358FF4F8F
:1008A000E491E093D3011D82EAC11092800010927E
:1008B00081009091810098609093810090918100D7
:1008C000916090938100282F30E0F901EF56FF4F9F
:1008D000E491F0E0EE0FFF1FE155FF4F4591549179
:1008E0005093CE014093CD01F901E358FF4FE491BD
:1008F000E093CC0161E00E94130721E02D8389C0C1
:100900002D8127FDC0C161E00E9413078D818D7F7D
:1009100009F07FC04801A12CB12C60E072E18AE7A8
:1009200090E0A50194010E94DC0D29833A834B835A
:100930005C8369017A0181E0C81AD108E108F108F5
:100940009FEFC916D104E104F10409F008F44EC088
:1009500060E472E48FE090E0A50194010E94DC0D58
:1009600069017A0181E0C81AD108E108F1089D8186
:10097000923009F52FEFC216D104E104F10409F019
:1009800008F444C160E970ED83E090E0A5019401B2
:100990000E94DC0D69017A0181E0C81AD108E108E2
:1009A000F1089FEFC916D104E104F10411F008F039
:1009B000BAC083E027C02FEFC216D104E104F104CE
:1009C000B9F0B0F068E478EE81E090E0A501940120
:1009D0000E94DC0D69017A0181E0C81AD108E108A2
:1009E000F1089D81992309F413C1DCC081E001C0A5
:1009F00082E09D81911106C095B5987F892B85BDB8
:100A000044C085E09091B100987F892B8093B1001C
:100A10003CC04801A12CB12C60E072E18AE790E073
:100A2000A50194010E94DC0D69017A0181E0C81AD8
:100A3000D108E108F108C114D10491E0E906F104FC
:100A400088F068E478EE81E090E0A50194010E94CE
:100A5000DC0D69017A0181E0C81AD108E108F108CA
:100A600083E001C081E09D81913079F49091810013
:100A7000987F892B80938100411451046104710493
:100A800049F42FEF3FEFA9012CC041145104610438
:100A9000710471F0D801AA0FBB1FA30192010E943B
:100AA000010E28EE33E040E050E00E94BA0D03C092
:100AB0002FEF3FEFA9018D81813099F0823019F13C
:100AC0008111E1C0C7BC2093D6013093D701409378
:100AD000D8015093D90180916E00826080936E009E
:100AE000D2C0D0928900C09288002093CF01309369
:100AF000D0014093D1015093D20180916F00826068
:100B000080936F00C0C0C092B3002093C80130939F
:100B1000C9014093CA015093CB018091700082605B
:100B200080937000B0C068E478EE81E090E0A501A9
:100B300094010E94DC0D69017A0191E0C91AD10883
:100B4000E108F1082FEFC216D104E104F10441F1EC
:100B500038F164E274EF80E090E0A50194010E9416
:100B6000DC0D69017A0181E0C81AD108E108F108B9
:100B70009FEFC916D104E104F10409F008F441CF54
:100B800062E17AE780E090E0A50194010E94DC0D2B
:100B900069017A0181E0C81AD108E108F10819C099
:100BA00084E030CF2FEFC216D104E104F10409F044
:100BB00008F463C062E17AE780E090E0A501940167
:100BC0000E94DC0D69017A0191E0C91AD108E1089F
:100BD000F1088FEFC816D104E104F104A9F0A0F0E8
:100BE00089819A81AB81BC812AE0B595A7959795BB
:100BF00087952A95D1F76C017D0121E0C21AD108B1
:100C0000E108F10887E0FECE86E0FCCE82E0FACE75
:100C10008FEFC816D104E104F10469F160F162E1DB
:100C20007AE780E090E0A50194010E94DC0D690163
:100C30007A0191E0C91AD108E108F1082FEFC21634
:100C4000D104E104F104A9F0A0F089819A81AB817B
:100C5000BC813AE0B595A795979587953A95D1F7D8
:100C60006C017D0121E0C21AD108E108F10885E09C
:100C7000C3CE84E0C1CE83E0BFCE84E0BACE61E0D3
:100C80000E94130747CE0F900F900F900F900F9078
:100C9000DF91CF911F910F91FF90EF90DF90CF9058
:100CA000BF90AF909F908F907F906F905F904F908C
:100CB0000895813039F018F0823051F00895109283
:100CC0006E00089580916F008D7F80936F0008956E
:100CD000809170008D7F8093700081E08093B000E0
:100CE0008091B100887F84608093B1001092B3003E
:100CF0000895CF93C82F80910001C81307C0E8E67C
:100D0000F0E084919FEF9093000101C08FEF0E946B
:100D1000590660E08C2FCF910C944F071F920F92D1
:100D20000FB60F9211242F933F934F935F936F93BE
:100D30007F938F939F93AF93BF93EF93FF93809194
:100D4000C8019091C901A091CA01B091CB01892B32
:100D50008A2B8B2B51F19091C501E091C601F09146
:100D6000C7018081892780838091C8019091C90142
:100D7000A091CA01B091CB01181619061A061B06DC
:100D8000C4F48091C8019091C901A091CA01B091A9
:100D9000CB010197A109B1098093C8019093C901C2
:100DA000A093CA01B093CB0104C0809100010E94BE
:100DB0007906FF91EF91BF91AF919F918F917F91B4
:100DC0006F915F914F913F912F910F900FBE0F90B8
:100DD0001F901895833081F028F4813099F082308B
:100DE000A1F008958730A9F08830B9F08430D1F4AB
:100DF000809180008F7D03C0809180008F778093E9
:100E00008000089584B58F7702C084B58F7D84BD3E
:100E100008958091B0008F7703C08091B0008F7DDE
:100E20008093B0000895CF93DF9390E0FC01E358E6
:100E3000FF4F2491FC01EF56FF4F8491882361F10D
:100E400090E0880F991FFC01E754FF4FC591D491A2
:100E5000FC01E155FF4FA591B491611109C09FB705
:100E6000F8948881209582238883EC912E230BC0EF
:100E7000623061F49FB7F8948881322F30958323D4
:100E80008883EC912E2B2C939FBF06C08FB7F894CC
:100E9000E8812E2B28838FBFDF91CF9108951F9378
:100EA000CF93DF93282F30E0F901E759FF4F84916A
:100EB000F901E358FF4FD491F901EF56FF4FC49168
:100EC000CC23C1F0162F81110E94EA06EC2FF0E02E
:100ED000EE0FFF1FE155FF4FA591B4919FB7F89416
:100EE000111104C08C91D095D82302C0EC91DE2B57
:100EF000DC939FBFDF91CF911F910895BC016E5F7E
:100F00007F4FDC01ED91FC910190F081E02D40E0FC
:100F1000099591E0811190E0892F08952091820236
:100F2000222399F04FB7F89420918202213059F48E
:100F30002DB3209380023DB320918102209523237D
:100F40002DBB4FBF02C0409380028CBD9DBD089554
:100F50008EBD00000DB407FEFDCF8EB508958091C3
:100F60008202882361F09FB7F894209182028091D9
:100F70008002213019F48DBB9FBF08958FBF089563
:100F8000AF92BF92CF92DF92EF92FF920F931F9397
:100F9000CF93DF936C01A42E79016068B62E83E5B0
:100FA00090E00E948E0760E0F60186850E944F0760
:100FB000AA948B2D0E94A8070023A1F0CFEFD0E0C8
:100FC00001C0CC0F0A95EAF78B2D0E94A8072C2FA1
:100FD0002095F701908192238C23892BF701808340
:100FE00011E001C010E0812F90E0E701C80FD91F88
:100FF0001A1530F48B2D0E94A80788831F5FF3CF4A
:1010000080E00E94A807888361E0F60186850E943F
:101010004F07DF91CF911F910F91FF90EF90DF90DD
:10102000CF90BF90AF900C94AF07FC0189E391E0A3
:10103000918380838AE086878FEF878708950F9357
:101040001F93CF93DF93EC01062F142F83E590E0DD
:101050000E948E0760E08E850E944F07802F0E94BD
:10106000A807812F0E94A80761E08E850E944F0784
:10107000DF91CF911F910F910C94AF07DF92EF9208
:10108000FF920F931F93CF93DF938C01C62FF42E03
:10109000D22EE32E83E590E00E948E0760E0F801F7
:1010A00086850E944F078C2F0E94A807CD2DDE2D2C
:1010B000CE018F0D911D7C01EC16FD0621F089916A
:1010C0000E94A807F9CF61E0F80186850E944F07CA
:1010D000DF91CF911F910F91FF90EF90DF900C94D3
:1010E000AF071F93CF93DF93EC01162F83E590E0BA
:1010F0000E948E0760E08E850E944F07812F8068D6
:101100000E94A80780E00E94A807182F61E08E8542
:101110000E944F070E94AF07812FDF91CF911F914F
:1011200008950F9341110E94C0070F9108950F93E6
:101130001F93CF93DF938C01D62FC42F0E94710889
:10114000482F4C2B6D2FC801DF91CF911F910F912C
:101150000C941F080F931F93CF93DF938C01D62F0E
:10116000C42F0E947108C0954C2F48236D2FC801D1
:10117000DF91CF911F910F910C941F08CF92DF92B6
:10118000EF92FF920F931F93CF93DF93EC016B01CC
:10119000142F790140E062E00E941F0844E06AE0F9
:1011A000CE010E941F0840E864E1CE010E941F08A2
:1011B0009601412F62E1CE010E943E0843E062E0C9
:1011C000CE010E941F0808E813E16AE0CE010E94E8
:1011D000710882FF13C040E062E0CE010E941F0848
:1011E00064E4CE010E947108F701808362E4CE01BD
:1011F0000E947108F701818380E004C00150110949
:1012000021F783E0DF91CF911F910F91FF90EF9035
:10121000DF90CF9008953F924F925F926F927F92AE
:101220008F929F92AF92BF92CF92DF92EF92FF92F6
:101230000F931F93CF93DF9300D0CDB7DEB73C0160
:10124000162F942E2901A114B10419F0F501408143
:1012500001C040E0342EF0E18F9E300C112440E0BC
:1012600062E0C3010E941F084FE768E0C3010E94CB
:101270001F0840E864E1C3010E941F089201402F4B
:1012800062E1C3010E943E08432D6AE1C3010E944E
:101290001F08412F62E0C3010E941F081C3029F47F
:1012A00040E86AE1C3010E94970800ED17E068E09A
:1012B000C3010E947108982F992139F480FD03C061
:1012C00001501109A1F783E065C06CE0C3010E94E1
:1012D0007108182F837109F05AC0E114F104F9F074
:1012E000C114D104E1F064E1C3010E947108F60168
:1012F0009081981708F445C08083082D9701482FE6
:1013000062E1C3010E94910868E1C3010E94710873
:101310008770A114B10421F0F501808301C080E041
:1013200013FD31C0E114F10481F1C114D10469F15C
:101330009E89992351F1F6014081413021F4843096
:1013400041F58FEF27C0423020F1811122C0425079
:101350009E012F5F3F4FB701C3010E94BE0881115C
:1013600019C0F6018081E80EF11CF70132979081D7
:10137000898198130EC0319690818A81981309C093
:1013800004C084E007C082E005C080E003C081E0C3
:1013900001C087E00F900F90DF91CF911F910F91C7
:1013A000FF90EF90DF90CF90BF90AF909F908F9085
:1013B0007F906F905F904F903F9008958F92AF9283
:1013C000BF92CF92DF92EF92FF920F931F93AF9253
:1013D0008C2C570168017901042F9B0140E36CE0DC
:1013E0000E940B090F901F910F91FF90EF90DF90DB
:1013F000CF90BF90AF908F9008952F923F924F92D1
:101400005F926F927F928F929F92AF92BF92CF9294
:10141000DF92EF92FF920F931F93CF93DF93CDB79D
:10142000DEB72C970FB6F894DEBF0FBECDBF4135A7
:1014300008F005C1342E3B014C0140E86CE10E94EC
:10144000AA082224239432E0231691F083E0281680
:10145000E1F091E02912F7C083E989833320D1F0CC
:1014600081E0F3019081953008F480E0B12C17C041
:10147000F5E9F983332081F081E0F3019081983020
:1014800008F480E043E0B42E0AC087E9898336E09F
:10149000B32E04C0B12C02C023E0B22E80E0D32CC6
:1014A000F8E0BF9ED0181124D7FCD12C882321F05E
:1014B00098E89B8333E001C032E021E09D2D9770D6
:1014C00009F420E09D2D959595959595290F31F47A
:1014D000882309F491C038E0D30E8EC0811102C078
:1014E00094E001C093E0291708F4922FEB2DF0E06F
:1014F0003196E60DF71D232F4191A1E0B0E0AC0F2E
:10150000BD1FA20FB11D4C932F5F422F431B4917E4
:1015100098F3DECF8111DDC09FE19D150CF495C0DD
:1015200080E2D82E90E79A839B818C8189279D81C8
:1015300089279E8189278F839E01285F3F4F47E03F
:10154000BE016F5F7F4FC4010E94BE088111C1C000
:101550001B86E3E0EA87CE0107962C0199E09C8781
:10156000CB844C2D4295407F4C0D6AE1C4010E9412
:101570001F08A12CCE010B967C018E01065F1F4F28
:1015800092014C85BE016F5F7F4FC4010E94DE094E
:10159000823009F0BFCF6CE1C4010E94710885FD63
:1015A00050C08F7109F480E2282F30E04D2DDD0C02
:1015B000550B421753070CF046C0D82E85958595DC
:1015C000859591E0980F422F477081E009F480E003
:1015D000890FE1E0F0E0EC0FFD1FE80FF11D215055
:1015E00031092770332781E090E001C0880F2A95E8
:1015F000EAF79081892B80838FE18D150CF492CFCF
:101600009D2D97709B878D2D8595859585958E5FF2
:10161000292FE0E18E9F200D11242A8321E09111D2
:1016200001C020E0280F2C8744244394512C4C0EF9
:101630005D1E480E511CF9E0F81BFA8791CF86E039
:1016400048C082E046C085E044C08B818838F1F113
:1016500082E094E0EB2DF0E03196E60DF71D980F57
:10166000A1E0B0E0AC0FBD1FA80FB11D2C912193DC
:101670008F5F9813F5CF8A85833021F58B85811193
:1016800021C09E012D5F3F4F41E0B201C4010E9485
:10169000BE0881111EC09B81F2018181981314C084
:1016A0009C818281981310C0808182FF02C02394A4
:1016B000CACEF3018387822D880F820D8F5F8083CE
:1016C00080E007C081E005C087E003C083E093E0CD
:1016D000C1CF2C960FB6F894DEBF0FBECDBFDF9101
:1016E000CF911F910F91FF90EF90DF90CF90BF901F
:1016F000AF909F908F907F906F905F904F903F90B2
:101700002F9008954F925F926F927F928F929F9247
:10171000AF92CF92EF92FF920F931F93CF93DF93ED
:1017200000D0CDB7DEB76A834115510539F1F90113
:101730006081623018F149012A013C0140E86CE106
:101740000E94AA0887E08983A12CC12CCE010196B2
:101750007C018401920141E0BE016E5F7F4FC301B5
:101760000E94DE0981110DC0F4018081823041F4B4
:1017700081E09981911105C080E003C084E001C03F
:1017800081E00F900F90DF91CF911F910F91FF900B
:10179000EF90CF90AF909F908F907F906F905F90E1
:1017A0004F9008959A01AB0166E20C94820B0F935F
:1017B0001F93CF93DF9300D01F92CDB7DEB78C017C
:1017C00082E08B8340E064E2C8010E941F0840E091
:1017D00066E2C8010E941F0846E268E4C8010E9450
:1017E0001F08AE014D5F5F4FBE016F5F7F4FC801A5
:1017F0000E94D20B982F81E0992319F0923009F0C2
:1018000080E00F900F900F90DF91CF911F910F917B
:1018100008951F920F920FB60F9211242F938F935A
:101820009F93EF93FF93E091EA01F091EB018081A8
:10183000E091F001F091F10182FD12C09081809160
:10184000F3018F5F8F732091F401821751F0E091C3
:10185000F301F0E0E652FE4F958F8093F30101C053
:101860008081FF91EF919F918F912F910F900FBEEB
:101870000F901F9018951F920F920FB60F92112480
:101880002F933F934F935F936F937F938F939F9388
:10189000AF93BF93EF93FF938AED91E00E94150DF4
:1018A000FF91EF91BF91AF919F918F917F916F9138
:1018B0005F914F913F912F910F900FBE0F901F900E
:1018C0001895EAEDF1E01382128288EE93E0A0E031
:1018D000B0E084839583A683B78383E491E091830A
:1018E000808385EC90E09587848784EC90E09787EF
:1018F000868780EC90E0918B808B81EC90E0938BDD
:10190000828B82EC90E0958B848B86EC90E0978BB9
:10191000868B118E128E138E148E08951F920F9245
:101920000FB60F9211242F933F938F939F93AF93F2
:10193000BF938091780290917902A0917A02B09140
:101940007B023091770223E0230F2D3720F401969C
:10195000A11DB11D05C026E8230F0296A11DB11DD2
:10196000209377028093780290937902A0937A0271
:10197000B0937B0280917C0290917D02A0917E02C7
:10198000B0917F020196A11DB11D80937C029093BE
:101990007D02A0937E02B0937F02BF91AF919F9191
:1019A0008F913F912F910F900FBE0F901F90189520
:1019B000FC01918D228D892F90E0805C9F4F821BCE
:1019C00091098F7399270895FC01918D828D981745
:1019D00031F0828DE80FF11D858D90E008958FEF35
:1019E0009FEF0895FC01918D828D981761F0828D93
:1019F000DF01A80FB11D5D968C91928D9F5F9F7343
:101A0000928F90E008958FEF9FEF0895FC01538D22
:101A1000448D252F30E0842F90E0821B930B5417C8
:101A200010F0CF96089501970895FC01848DDF0191
:101A3000A80FB11DA35ABF4F2C91848D90E0019641
:101A40008F739927848FA689B7892C93A089B18930
:101A50008C91837080648C93938D848D981306C0D1
:101A60000288F389E02D80818F7D80830895EF9235
:101A7000FF920F931F93CF93DF93EC0181E0888F48
:101A80009B8D8C8D981305C0E889F989808185FD2F
:101A900026C0F62E0B8D10E00F5F1F4F0F7311271E
:101AA000E02E8C8DE8120CC00FB607FCFACFE88947
:101AB000F989808185FFF5CFCE010E94150DF1CF08
:101AC0008B8DFE01E80FF11DE35AFF4FF0829FB7A7
:101AD000F8940B8FEA89FB89808180620AC09FB7E6
:101AE000F894EE89FF896083E889F98980818370A1
:101AF000806480839FBF81E090E0DF91CF911F9150
:101B00000F91FF90EF900895CF93DF93EC01888DB4
:101B10008823C9F0EA89FB89808185FD05C0A889F1
:101B2000B9898C9186FD0FC00FB607FCF5CF808177
:101B300085FFF2CFA889B9898C9185FFEDCFCE01C1
:101B40000E94150DE7CFDF91CF91089597FB072EE7
:101B500016F4009407D077FD09D00E940C0E07FC04
:101B600005D03EF4909581959F4F089570956195AD
:101B70007F4F0895A1E21A2EAA1BBB1BFD010DC0C9
:101B8000AA1FBB1FEE1FFF1FA217B307E407F5072D
:101B900020F0A21BB30BE40BF50B661F771F881F09
:101BA000991F1A9469F760957095809590959B019F
:101BB000AC01BD01CF010895052E97FB1EF40094E2
:101BC0000E94F30D57FD07D00E94BA0D07FC03D009
:101BD0004EF40C94F30D50954095309521953F4F60
:101BE0004F4F5F4F089590958095709561957F4F09
:101BF0008F4F9F4F0895EE0FFF1F0590F491E02D3A
:101C000009940E94200EA59F900DB49F900DA49F53
:101C1000800D911D11240895AA1BBB1B51E107C023
:101C2000AA1FBB1FA617B70710F0A61BB70B881F6C
:101C3000991F5A95A9F780959095BC01CD010895FB
:101C4000A29FB001B39FC001A39F700D811D1124FD
:101C5000911DB29F700D811D1124911D089510E0FA
:101C6000C4E6D0E004C0FE010E94FB0D2196C536FB
:081C7000D107C9F7F894FFCF7A
:101C7800FF4154442B202B3438363634303539392B
:101C880038363B000D0A006E616E00696E66006FA3
:101C9800766600000000008B0115011201DB01F4DB
:101CA800016A01DC0100000000FD09D70B7E070076
:101CB800000000370D1501060D840DD80CF20CE458
:021CC8000C000E
:00000001FF
